{"contracts/ComStaking.sol":{"ComStaking":{"abi":[{"inputs":[{"internalType":"address","name":"_stakingToken","type":"address"},{"internalType":"address","name":"_rewardToken","type":"address"}],"stateMutability":"nonpayable","type":"constructor"},{"inputs":[],"name":"EnforcedPause","type":"error"},{"inputs":[],"name":"ExpectedPause","type":"error"},{"inputs":[{"internalType":"address","name":"owner","type":"address"}],"name":"OwnableInvalidOwner","type":"error"},{"inputs":[{"internalType":"address","name":"account","type":"address"}],"name":"OwnableUnauthorizedAccount","type":"error"},{"inputs":[],"name":"ReentrancyGuardReentrantCall","type":"error"},{"anonymous":false,"inputs":[{"indexed":true,"internalType":"address","name":"previousOwner","type":"address"},{"indexed":true,"internalType":"address","name":"newOwner","type":"address"}],"name":"OwnershipTransferred","type":"event"},{"anonymous":false,"inputs":[{"indexed":false,"internalType":"address","name":"account","type":"address"}],"name":"Paused","type":"event"},{"anonymous":false,"inputs":[{"indexed":true,"internalType":"address","name":"staker","type":"address"},{"indexed":false,"internalType":"uint256","name":"rewardAmount","type":"uint256"}],"name":"RewardsClaimed","type":"event"},{"anonymous":false,"inputs":[{"indexed":true,"internalType":"address","name":"staker","type":"address"},{"indexed":false,"internalType":"uint256","name":"amount","type":"uint256"}],"name":"TokensStaked","type":"event"},{"anonymous":false,"inputs":[{"indexed":true,"internalType":"address","name":"staker","type":"address"},{"indexed":false,"internalType":"uint256","name":"amount","type":"uint256"}],"name":"TokensWithdrawn","type":"event"},{"anonymous":false,"inputs":[{"indexed":false,"internalType":"address","name":"account","type":"address"}],"name":"Unpaused","type":"event"},{"anonymous":false,"inputs":[{"indexed":false,"internalType":"uint256","name":"oldAmount","type":"uint256"},{"indexed":false,"internalType":"uint256","name":"newAmount","type":"uint256"}],"name":"UpdatedMinStakeAmount","type":"event"},{"anonymous":false,"inputs":[{"indexed":false,"internalType":"uint256","name":"oldNumerator","type":"uint256"},{"indexed":false,"internalType":"uint256","name":"newNumerator","type":"uint256"},{"indexed":false,"internalType":"uint256","name":"oldDenominator","type":"uint256"},{"indexed":false,"internalType":"uint256","name":"newDenominator","type":"uint256"}],"name":"UpdatedRewardRatio","type":"event"},{"anonymous":false,"inputs":[{"indexed":false,"internalType":"uint256","name":"oldTimeUnit","type":"uint256"},{"indexed":false,"internalType":"uint256","name":"newTimeUnit","type":"uint256"}],"name":"UpdatedTimeUint","type":"event"},{"inputs":[],"name":"claimRewards","outputs":[],"stateMutability":"nonpayable","type":"function"},{"inputs":[],"name":"getRewardTokenBalance","outputs":[{"internalType":"uint256","name":"","type":"uint256"}],"stateMutability":"view","type":"function"},{"inputs":[{"internalType":"address","name":"_staker","type":"address"}],"name":"getStakeInfo","outputs":[{"internalType":"uint256","name":"_tokensStaked","type":"uint256"},{"internalType":"uint256","name":"_rewards","type":"uint256"}],"stateMutability":"view","type":"function"},{"inputs":[],"name":"owner","outputs":[{"internalType":"address","name":"","type":"address"}],"stateMutability":"view","type":"function"},{"inputs":[],"name":"paused","outputs":[{"internalType":"bool","name":"","type":"bool"}],"stateMutability":"view","type":"function"},{"inputs":[],"name":"renounceOwnership","outputs":[],"stateMutability":"nonpayable","type":"function"},{"inputs":[],"name":"rewardToken","outputs":[{"internalType":"address","name":"","type":"address"}],"stateMutability":"view","type":"function"},{"inputs":[],"name":"rewardTokenBalance","outputs":[{"internalType":"uint256","name":"","type":"uint256"}],"stateMutability":"view","type":"function"},{"inputs":[{"internalType":"uint256","name":"_amount","type":"uint256"}],"name":"stake","outputs":[],"stateMutability":"payable","type":"function"},{"inputs":[{"internalType":"address","name":"","type":"address"}],"name":"stakers","outputs":[{"internalType":"uint128","name":"timeOfLastUpdate","type":"uint128"},{"internalType":"uint256","name":"amountStaked","type":"uint256"},{"internalType":"uint256","name":"unclaimedRewards","type":"uint256"}],"stateMutability":"view","type":"function"},{"inputs":[{"internalType":"uint256","name":"","type":"uint256"}],"name":"stakersArray","outputs":[{"internalType":"address","name":"","type":"address"}],"stateMutability":"view","type":"function"},{"inputs":[],"name":"stakingToken","outputs":[{"internalType":"address","name":"","type":"address"}],"stateMutability":"view","type":"function"},{"inputs":[],"name":"stakingTokenBalance","outputs":[{"internalType":"uint256","name":"","type":"uint256"}],"stateMutability":"view","type":"function"},{"inputs":[{"internalType":"address","name":"newOwner","type":"address"}],"name":"transferOwnership","outputs":[],"stateMutability":"nonpayable","type":"function"},{"inputs":[{"internalType":"uint256","name":"_amount","type":"uint256"}],"name":"withdraw","outputs":[],"stateMutability":"nonpayable","type":"function"}],"evm":{"bytecode":{"linkReferences":{},"object":"60c060405234801561001057600080fd5b506040516110d53803806110d583398101604081905261002f91610169565b338061005657604051631e4fbdf760e01b8152600060048201526024015b60405180910390fd5b61005f816100fd565b506000805460ff60a01b19169055600180556001600160a01b03808316908216036100e65760405162461bcd60e51b815260206004820152603160248201527f52657761726420546f6b656e20616e64205374616b696e6720546f6b656e206360448201527030b713ba103132903a34329039b0b6b29760791b606482015260840161004d565b6001600160a01b0390811660a0521660805261019c565b600080546001600160a01b038381166001600160a01b0319831681178455604051919092169283917f8be0079c531659141344cd1fd0a4f28419497f9722a3daafe3b4186f6b6457e09190a35050565b80516001600160a01b038116811461016457600080fd5b919050565b6000806040838503121561017c57600080fd5b6101858361014d565b91506101936020840161014d565b90509250929050565b60805160a051610eff6101d6600039600081816103260152610cb80152600081816101b2015281816106c501526109a50152610eff6000f3fe6080604052600436106100e85760003560e01c80638caaa2711161008a578063a694fc3a11610059578063a694fc3a146102ac578063c3453153146102bf578063f2fde38b146102f4578063f7c618c11461031457600080fd5b80638caaa271146101f85780638da5cb5b1461020e5780639168ae721461022c57806393ce53431461029757600080fd5b80635c975abb116100c65780635c975abb14610161578063715018a61461018b57806372f702f3146101a057806375824f23146101d457600080fd5b80632e1a7d4d146100ed578063372500ab1461010f5780635357e91614610124575b600080fd5b3480156100f957600080fd5b5061010d610108366004610da7565b610348565b005b34801561011b57600080fd5b5061010d610365565b34801561013057600080fd5b5061014461013f366004610da7565b610380565b6040516001600160a01b0390911681526020015b60405180910390f35b34801561016d57600080fd5b50600054600160a01b900460ff166040519015158152602001610158565b34801561019757600080fd5b5061010d6103aa565b3480156101ac57600080fd5b506101447f000000000000000000000000000000000000000000000000000000000000000081565b3480156101e057600080fd5b506101ea60035481565b604051908152602001610158565b34801561020457600080fd5b506101ea60025481565b34801561021a57600080fd5b506000546001600160a01b0316610144565b34801561023857600080fd5b50610272610247366004610dc0565b6005602052600090815260409020805460018201546002909201546001600160801b03909116919083565b604080516001600160801b039094168452602084019290925290820152606001610158565b3480156102a357600080fd5b506003546101ea565b61010d6102ba366004610da7565b6103bc565b3480156102cb57600080fd5b506102df6102da366004610dc0565b6103cd565b60408051928352602083019190915201610158565b34801561030057600080fd5b5061010d61030f366004610dc0565b6103fa565b34801561032057600080fd5b506101447f000000000000000000000000000000000000000000000000000000000000000081565b61035061043a565b61035981610464565b61036260018055565b50565b61036d61043a565b610375610774565b61037e60018055565b565b6004818154811061039057600080fd5b6000918252602090912001546001600160a01b0316905081565b6103b2610832565b61037e600061085f565b6103c461043a565b610359816108af565b6001600160a01b038116600090815260056020526040812060010154906103f383610a8d565b9050915091565b610402610832565b6001600160a01b03811661043157604051631e4fbdf760e01b8152600060048201526024015b60405180910390fd5b6103628161085f565b60026001540361045d57604051633ee5aeb560e01b815260040160405180910390fd5b6002600155565b33600090815260056020526040902060010154816104bb5760405162461bcd60e51b81526020600482015260146024820152735769746864726177696e67203020746f6b656e7360601b6044820152606401610428565b8181101561050b5760405162461bcd60e51b815260206004820152601d60248201527f5769746864726177696e67206d6f7265207468616e207374616b65642e0000006044820152606401610428565b61051433610b03565b818103610663576000600480548060200260200160405190810160405280929190818152602001828054801561057357602002820191906000526020600020905b81546001600160a01b03168152600190910190602001808311610555575b5050505050905060005b815181101561066057336001600160a01b03168282815181106105a2576105a2610df0565b60200260200101516001600160a01b0316036106585781600183516105c79190610e1c565b815181106105d7576105d7610df0565b6020026020010151600482815481106105f2576105f2610df0565b9060005260206000200160006101000a8154816001600160a01b0302191690836001600160a01b03160217905550600480548061063157610631610e2f565b600082815260209020810160001990810180546001600160a01b0319169055019055610660565b60010161057d565b50505b3360009081526005602052604081206001018054849290610685908490610e1c565b92505081905550816002600082825461069e9190610e1c565b90915550506040516323b872dd60e01b8152306004820152336024820152604481018390527f00000000000000000000000000000000000000000000000000000000000000006001600160a01b0316906323b872dd906064016020604051808303816000875af1158015610716573d6000803e3d6000fd5b505050506040513d601f19601f8201168201806040525081019061073a9190610e45565b5060405182815233907f6352c5382c4a4578e712449ca65e83cdb392d045dfcf1cad9615189db2da244b9060200160405180910390a25050565b600061077f33610b79565b3360009081526005602052604090206002015461079c9190610e67565b9050600081116107dc5760405162461bcd60e51b815260206004820152600b60248201526a4e6f20726577617264732160a81b6044820152606401610428565b336000818152600560205260408120600201556107f99082610c23565b60405181815233907ffc30cddea38e2bf4d6ea7d3f9ed3b6ad7f176419f4963bd81318067a4aee73fe906020015b60405180910390a250565b6000546001600160a01b0316331461037e5760405163118cdaa760e01b8152336004820152602401610428565b600080546001600160a01b038381166001600160a01b0319831681178455604051919092169283917f8be0079c531659141344cd1fd0a4f28419497f9722a3daafe3b4186f6b6457e09190a35050565b600081116108f25760405162461bcd60e51b815260206004820152601060248201526f5374616b696e67203020746f6b656e7360801b6044820152606401610428565b33600090815260056020526040902060010154156109185761091333610b03565b610983565b60048054600181019091557f8a35acfbc15ff81a39ae7d344fd709f28e8600b4aa8c65c6b64bfe7fe36bd19b0180546001600160a01b03191633908117909155600090815260056020526040902080546001600160801b03191669ffffffffffffffffffff42161790555b6040516323b872dd60e01b8152336004820152306024820152604481018290527f00000000000000000000000000000000000000000000000000000000000000006001600160a01b0316906323b872dd906064016020604051808303816000875af11580156109f6573d6000803e3d6000fd5b505050506040513d601f19601f82011682018060405250810190610a1a9190610e45565b503360009081526005602052604081206001018054839290610a3d908490610e67565b925050819055508060026000828254610a569190610e67565b909155505060405181815233907fb539ca1e5c8d398ddf1c41c30166f33404941683be4683319b57669a93dad4ef90602001610827565b6001600160a01b0381166000908152600560205260408120600101548103610ace57506001600160a01b031660009081526005602052604090206002015490565b610ad782610b79565b6001600160a01b038316600090815260056020526040902060020154610afd9190610e67565b92915050565b6000610b0e82610b79565b6001600160a01b038316600090815260056020526040812060020180549293508392909190610b3e908490610e67565b9091555050506001600160a01b0316600090815260056020526040902080546001600160801b03191669ffffffffffffffffffff4216179055565b6001600160a01b0381166000908152600560209081526040808320815160608101835281546001600160801b031680825260018301549482019490945260029091015491810191909152904283610bd08383610e1c565b9050610bed846020015182610be59190610e7a565b611770610d2a565b9550610c03905085670de0b6b3a7640000610d5e565b9550610c199050670de0b6b3a764000086610ea7565b9695505050505050565b600354811115610c755760405162461bcd60e51b815260206004820152601860248201527f4e6f7420656e6f7567682072657761726420746f6b656e7300000000000000006044820152606401610428565b8060036000828254610c879190610e1c565b90915550506040516323b872dd60e01b81523060048201526001600160a01b038381166024830152604482018390527f000000000000000000000000000000000000000000000000000000000000000016906323b872dd906064016020604051808303816000875af1158015610d01573d6000803e3d6000fd5b505050506040513d601f19601f82011682018060405250810190610d259190610e45565b505050565b60008082600003610d4057506000905080610d57565b6001838581610d5157610d51610e91565b04915091505b9250929050565b60008083600003610d755750600190506000610d57565b83830283858281610d8857610d88610e91565b0414610d9b576000809250925050610d57565b60019590945092505050565b600060208284031215610db957600080fd5b5035919050565b600060208284031215610dd257600080fd5b81356001600160a01b0381168114610de957600080fd5b9392505050565b634e487b7160e01b600052603260045260246000fd5b634e487b7160e01b600052601160045260246000fd5b81810381811115610afd57610afd610e06565b634e487b7160e01b600052603160045260246000fd5b600060208284031215610e5757600080fd5b81518015158114610de957600080fd5b80820180821115610afd57610afd610e06565b8082028115828204841417610afd57610afd610e06565b634e487b7160e01b600052601260045260246000fd5b600082610ec457634e487b7160e01b600052601260045260246000fd5b50049056fea26469706673582212201037f53db2500b33df208bb2403b3f7f7d806731846fa029590257a3a8fb147e64736f6c63430008180033","opcodes":"PUSH1 0xC0 PUSH1 0x40 MSTORE CALLVALUE DUP1 ISZERO PUSH2 0x10 JUMPI PUSH1 0x0 DUP1 REVERT JUMPDEST POP PUSH1 0x40 MLOAD PUSH2 0x10D5 CODESIZE SUB DUP1 PUSH2 0x10D5 DUP4 CODECOPY DUP2 ADD PUSH1 0x40 DUP2 SWAP1 MSTORE PUSH2 0x2F SWAP2 PUSH2 0x169 JUMP JUMPDEST CALLER DUP1 PUSH2 0x56 JUMPI PUSH1 0x40 MLOAD PUSH4 0x1E4FBDF7 PUSH1 0xE0 SHL DUP2 MSTORE PUSH1 0x0 PUSH1 0x4 DUP3 ADD MSTORE PUSH1 0x24 ADD JUMPDEST PUSH1 0x40 MLOAD DUP1 SWAP2 SUB SWAP1 REVERT JUMPDEST PUSH2 0x5F DUP2 PUSH2 0xFD JUMP JUMPDEST POP PUSH1 0x0 DUP1 SLOAD PUSH1 0xFF PUSH1 0xA0 SHL NOT AND SWAP1 SSTORE PUSH1 0x1 DUP1 SSTORE PUSH1 0x1 PUSH1 0x1 PUSH1 0xA0 SHL SUB DUP1 DUP4 AND SWAP1 DUP3 AND SUB PUSH2 0xE6 JUMPI PUSH1 0x40 MLOAD PUSH3 0x461BCD PUSH1 0xE5 SHL DUP2 MSTORE PUSH1 0x20 PUSH1 0x4 DUP3 ADD MSTORE PUSH1 0x31 PUSH1 0x24 DUP3 ADD MSTORE PUSH32 0x52657761726420546F6B656E20616E64205374616B696E6720546F6B656E2063 PUSH1 0x44 DUP3 ADD MSTORE PUSH17 0x30B713BA103132903A34329039B0B6B297 PUSH1 0x79 SHL PUSH1 0x64 DUP3 ADD MSTORE PUSH1 0x84 ADD PUSH2 0x4D JUMP JUMPDEST PUSH1 0x1 PUSH1 0x1 PUSH1 0xA0 SHL SUB SWAP1 DUP2 AND PUSH1 0xA0 MSTORE AND PUSH1 0x80 MSTORE PUSH2 0x19C JUMP JUMPDEST PUSH1 0x0 DUP1 SLOAD PUSH1 0x1 PUSH1 0x1 PUSH1 0xA0 SHL SUB DUP4 DUP2 AND PUSH1 0x1 PUSH1 0x1 PUSH1 0xA0 SHL SUB NOT DUP4 AND DUP2 OR DUP5 SSTORE PUSH1 0x40 MLOAD SWAP2 SWAP1 SWAP3 AND SWAP3 DUP4 SWAP2 PUSH32 0x8BE0079C531659141344CD1FD0A4F28419497F9722A3DAAFE3B4186F6B6457E0 SWAP2 SWAP1 LOG3 POP POP JUMP JUMPDEST DUP1 MLOAD PUSH1 0x1 PUSH1 0x1 PUSH1 0xA0 SHL SUB DUP2 AND DUP2 EQ PUSH2 0x164 JUMPI PUSH1 0x0 DUP1 REVERT JUMPDEST SWAP2 SWAP1 POP JUMP JUMPDEST PUSH1 0x0 DUP1 PUSH1 0x40 DUP4 DUP6 SUB SLT ISZERO PUSH2 0x17C JUMPI PUSH1 0x0 DUP1 REVERT JUMPDEST PUSH2 0x185 DUP4 PUSH2 0x14D JUMP JUMPDEST SWAP2 POP PUSH2 0x193 PUSH1 0x20 DUP5 ADD PUSH2 0x14D JUMP JUMPDEST SWAP1 POP SWAP3 POP SWAP3 SWAP1 POP JUMP JUMPDEST PUSH1 0x80 MLOAD PUSH1 0xA0 MLOAD PUSH2 0xEFF PUSH2 0x1D6 PUSH1 0x0 CODECOPY PUSH1 0x0 DUP2 DUP2 PUSH2 0x326 ADD MSTORE PUSH2 0xCB8 ADD MSTORE PUSH1 0x0 DUP2 DUP2 PUSH2 0x1B2 ADD MSTORE DUP2 DUP2 PUSH2 0x6C5 ADD MSTORE PUSH2 0x9A5 ADD MSTORE PUSH2 0xEFF PUSH1 0x0 RETURN INVALID PUSH1 0x80 PUSH1 0x40 MSTORE PUSH1 0x4 CALLDATASIZE LT PUSH2 0xE8 JUMPI PUSH1 0x0 CALLDATALOAD PUSH1 0xE0 SHR DUP1 PUSH4 0x8CAAA271 GT PUSH2 0x8A JUMPI DUP1 PUSH4 0xA694FC3A GT PUSH2 0x59 JUMPI DUP1 PUSH4 0xA694FC3A EQ PUSH2 0x2AC JUMPI DUP1 PUSH4 0xC3453153 EQ PUSH2 0x2BF JUMPI DUP1 PUSH4 0xF2FDE38B EQ PUSH2 0x2F4 JUMPI DUP1 PUSH4 0xF7C618C1 EQ PUSH2 0x314 JUMPI PUSH1 0x0 DUP1 REVERT JUMPDEST DUP1 PUSH4 0x8CAAA271 EQ PUSH2 0x1F8 JUMPI DUP1 PUSH4 0x8DA5CB5B EQ PUSH2 0x20E JUMPI DUP1 PUSH4 0x9168AE72 EQ PUSH2 0x22C JUMPI DUP1 PUSH4 0x93CE5343 EQ PUSH2 0x297 JUMPI PUSH1 0x0 DUP1 REVERT JUMPDEST DUP1 PUSH4 0x5C975ABB GT PUSH2 0xC6 JUMPI DUP1 PUSH4 0x5C975ABB EQ PUSH2 0x161 JUMPI DUP1 PUSH4 0x715018A6 EQ PUSH2 0x18B JUMPI DUP1 PUSH4 0x72F702F3 EQ PUSH2 0x1A0 JUMPI DUP1 PUSH4 0x75824F23 EQ PUSH2 0x1D4 JUMPI PUSH1 0x0 DUP1 REVERT JUMPDEST DUP1 PUSH4 0x2E1A7D4D EQ PUSH2 0xED JUMPI DUP1 PUSH4 0x372500AB EQ PUSH2 0x10F JUMPI DUP1 PUSH4 0x5357E916 EQ PUSH2 0x124 JUMPI JUMPDEST PUSH1 0x0 DUP1 REVERT JUMPDEST CALLVALUE DUP1 ISZERO PUSH2 0xF9 JUMPI PUSH1 0x0 DUP1 REVERT JUMPDEST POP PUSH2 0x10D PUSH2 0x108 CALLDATASIZE PUSH1 0x4 PUSH2 0xDA7 JUMP JUMPDEST PUSH2 0x348 JUMP JUMPDEST STOP JUMPDEST CALLVALUE DUP1 ISZERO PUSH2 0x11B JUMPI PUSH1 0x0 DUP1 REVERT JUMPDEST POP PUSH2 0x10D PUSH2 0x365 JUMP JUMPDEST CALLVALUE DUP1 ISZERO PUSH2 0x130 JUMPI PUSH1 0x0 DUP1 REVERT JUMPDEST POP PUSH2 0x144 PUSH2 0x13F CALLDATASIZE PUSH1 0x4 PUSH2 0xDA7 JUMP JUMPDEST PUSH2 0x380 JUMP JUMPDEST PUSH1 0x40 MLOAD PUSH1 0x1 PUSH1 0x1 PUSH1 0xA0 SHL SUB SWAP1 SWAP2 AND DUP2 MSTORE PUSH1 0x20 ADD JUMPDEST PUSH1 0x40 MLOAD DUP1 SWAP2 SUB SWAP1 RETURN JUMPDEST CALLVALUE DUP1 ISZERO PUSH2 0x16D JUMPI PUSH1 0x0 DUP1 REVERT JUMPDEST POP PUSH1 0x0 SLOAD PUSH1 0x1 PUSH1 0xA0 SHL SWAP1 DIV PUSH1 0xFF AND PUSH1 0x40 MLOAD SWAP1 ISZERO ISZERO DUP2 MSTORE PUSH1 0x20 ADD PUSH2 0x158 JUMP JUMPDEST CALLVALUE DUP1 ISZERO PUSH2 0x197 JUMPI PUSH1 0x0 DUP1 REVERT JUMPDEST POP PUSH2 0x10D PUSH2 0x3AA JUMP JUMPDEST CALLVALUE DUP1 ISZERO PUSH2 0x1AC JUMPI PUSH1 0x0 DUP1 REVERT JUMPDEST POP PUSH2 0x144 PUSH32 0x0 DUP2 JUMP JUMPDEST CALLVALUE DUP1 ISZERO PUSH2 0x1E0 JUMPI PUSH1 0x0 DUP1 REVERT JUMPDEST POP PUSH2 0x1EA PUSH1 0x3 SLOAD DUP2 JUMP JUMPDEST PUSH1 0x40 MLOAD SWAP1 DUP2 MSTORE PUSH1 0x20 ADD PUSH2 0x158 JUMP JUMPDEST CALLVALUE DUP1 ISZERO PUSH2 0x204 JUMPI PUSH1 0x0 DUP1 REVERT JUMPDEST POP PUSH2 0x1EA PUSH1 0x2 SLOAD DUP2 JUMP JUMPDEST CALLVALUE DUP1 ISZERO PUSH2 0x21A JUMPI PUSH1 0x0 DUP1 REVERT JUMPDEST POP PUSH1 0x0 SLOAD PUSH1 0x1 PUSH1 0x1 PUSH1 0xA0 SHL SUB AND PUSH2 0x144 JUMP JUMPDEST CALLVALUE DUP1 ISZERO PUSH2 0x238 JUMPI PUSH1 0x0 DUP1 REVERT JUMPDEST POP PUSH2 0x272 PUSH2 0x247 CALLDATASIZE PUSH1 0x4 PUSH2 0xDC0 JUMP JUMPDEST PUSH1 0x5 PUSH1 0x20 MSTORE PUSH1 0x0 SWAP1 DUP2 MSTORE PUSH1 0x40 SWAP1 KECCAK256 DUP1 SLOAD PUSH1 0x1 DUP3 ADD SLOAD PUSH1 0x2 SWAP1 SWAP3 ADD SLOAD PUSH1 0x1 PUSH1 0x1 PUSH1 0x80 SHL SUB SWAP1 SWAP2 AND SWAP2 SWAP1 DUP4 JUMP JUMPDEST PUSH1 0x40 DUP1 MLOAD PUSH1 0x1 PUSH1 0x1 PUSH1 0x80 SHL SUB SWAP1 SWAP5 AND DUP5 MSTORE PUSH1 0x20 DUP5 ADD SWAP3 SWAP1 SWAP3 MSTORE SWAP1 DUP3 ADD MSTORE PUSH1 0x60 ADD PUSH2 0x158 JUMP JUMPDEST CALLVALUE DUP1 ISZERO PUSH2 0x2A3 JUMPI PUSH1 0x0 DUP1 REVERT JUMPDEST POP PUSH1 0x3 SLOAD PUSH2 0x1EA JUMP JUMPDEST PUSH2 0x10D PUSH2 0x2BA CALLDATASIZE PUSH1 0x4 PUSH2 0xDA7 JUMP JUMPDEST PUSH2 0x3BC JUMP JUMPDEST CALLVALUE DUP1 ISZERO PUSH2 0x2CB JUMPI PUSH1 0x0 DUP1 REVERT JUMPDEST POP PUSH2 0x2DF PUSH2 0x2DA CALLDATASIZE PUSH1 0x4 PUSH2 0xDC0 JUMP JUMPDEST PUSH2 0x3CD JUMP JUMPDEST PUSH1 0x40 DUP1 MLOAD SWAP3 DUP4 MSTORE PUSH1 0x20 DUP4 ADD SWAP2 SWAP1 SWAP2 MSTORE ADD PUSH2 0x158 JUMP JUMPDEST CALLVALUE DUP1 ISZERO PUSH2 0x300 JUMPI PUSH1 0x0 DUP1 REVERT JUMPDEST POP PUSH2 0x10D PUSH2 0x30F CALLDATASIZE PUSH1 0x4 PUSH2 0xDC0 JUMP JUMPDEST PUSH2 0x3FA JUMP JUMPDEST CALLVALUE DUP1 ISZERO PUSH2 0x320 JUMPI PUSH1 0x0 DUP1 REVERT JUMPDEST POP PUSH2 0x144 PUSH32 0x0 DUP2 JUMP JUMPDEST PUSH2 0x350 PUSH2 0x43A JUMP JUMPDEST PUSH2 0x359 DUP2 PUSH2 0x464 JUMP JUMPDEST PUSH2 0x362 PUSH1 0x1 DUP1 SSTORE JUMP JUMPDEST POP JUMP JUMPDEST PUSH2 0x36D PUSH2 0x43A JUMP JUMPDEST PUSH2 0x375 PUSH2 0x774 JUMP JUMPDEST PUSH2 0x37E PUSH1 0x1 DUP1 SSTORE JUMP JUMPDEST JUMP JUMPDEST PUSH1 0x4 DUP2 DUP2 SLOAD DUP2 LT PUSH2 0x390 JUMPI PUSH1 0x0 DUP1 REVERT JUMPDEST PUSH1 0x0 SWAP2 DUP3 MSTORE PUSH1 0x20 SWAP1 SWAP2 KECCAK256 ADD SLOAD PUSH1 0x1 PUSH1 0x1 PUSH1 0xA0 SHL SUB AND SWAP1 POP DUP2 JUMP JUMPDEST PUSH2 0x3B2 PUSH2 0x832 JUMP JUMPDEST PUSH2 0x37E PUSH1 0x0 PUSH2 0x85F JUMP JUMPDEST PUSH2 0x3C4 PUSH2 0x43A JUMP JUMPDEST PUSH2 0x359 DUP2 PUSH2 0x8AF JUMP JUMPDEST PUSH1 0x1 PUSH1 0x1 PUSH1 0xA0 SHL SUB DUP2 AND PUSH1 0x0 SWAP1 DUP2 MSTORE PUSH1 0x5 PUSH1 0x20 MSTORE PUSH1 0x40 DUP2 KECCAK256 PUSH1 0x1 ADD SLOAD SWAP1 PUSH2 0x3F3 DUP4 PUSH2 0xA8D JUMP JUMPDEST SWAP1 POP SWAP2 POP SWAP2 JUMP JUMPDEST PUSH2 0x402 PUSH2 0x832 JUMP JUMPDEST PUSH1 0x1 PUSH1 0x1 PUSH1 0xA0 SHL SUB DUP2 AND PUSH2 0x431 JUMPI PUSH1 0x40 MLOAD PUSH4 0x1E4FBDF7 PUSH1 0xE0 SHL DUP2 MSTORE PUSH1 0x0 PUSH1 0x4 DUP3 ADD MSTORE PUSH1 0x24 ADD JUMPDEST PUSH1 0x40 MLOAD DUP1 SWAP2 SUB SWAP1 REVERT JUMPDEST PUSH2 0x362 DUP2 PUSH2 0x85F JUMP JUMPDEST PUSH1 0x2 PUSH1 0x1 SLOAD SUB PUSH2 0x45D JUMPI PUSH1 0x40 MLOAD PUSH4 0x3EE5AEB5 PUSH1 0xE0 SHL DUP2 MSTORE PUSH1 0x4 ADD PUSH1 0x40 MLOAD DUP1 SWAP2 SUB SWAP1 REVERT JUMPDEST PUSH1 0x2 PUSH1 0x1 SSTORE JUMP JUMPDEST CALLER PUSH1 0x0 SWAP1 DUP2 MSTORE PUSH1 0x5 PUSH1 0x20 MSTORE PUSH1 0x40 SWAP1 KECCAK256 PUSH1 0x1 ADD SLOAD DUP2 PUSH2 0x4BB JUMPI PUSH1 0x40 MLOAD PUSH3 0x461BCD PUSH1 0xE5 SHL DUP2 MSTORE PUSH1 0x20 PUSH1 0x4 DUP3 ADD MSTORE PUSH1 0x14 PUSH1 0x24 DUP3 ADD MSTORE PUSH20 0x5769746864726177696E67203020746F6B656E73 PUSH1 0x60 SHL PUSH1 0x44 DUP3 ADD MSTORE PUSH1 0x64 ADD PUSH2 0x428 JUMP JUMPDEST DUP2 DUP2 LT ISZERO PUSH2 0x50B JUMPI PUSH1 0x40 MLOAD PUSH3 0x461BCD PUSH1 0xE5 SHL DUP2 MSTORE PUSH1 0x20 PUSH1 0x4 DUP3 ADD MSTORE PUSH1 0x1D PUSH1 0x24 DUP3 ADD MSTORE PUSH32 0x5769746864726177696E67206D6F7265207468616E207374616B65642E000000 PUSH1 0x44 DUP3 ADD MSTORE PUSH1 0x64 ADD PUSH2 0x428 JUMP JUMPDEST PUSH2 0x514 CALLER PUSH2 0xB03 JUMP JUMPDEST DUP2 DUP2 SUB PUSH2 0x663 JUMPI PUSH1 0x0 PUSH1 0x4 DUP1 SLOAD DUP1 PUSH1 0x20 MUL PUSH1 0x20 ADD PUSH1 0x40 MLOAD SWAP1 DUP2 ADD PUSH1 0x40 MSTORE DUP1 SWAP3 SWAP2 SWAP1 DUP2 DUP2 MSTORE PUSH1 0x20 ADD DUP3 DUP1 SLOAD DUP1 ISZERO PUSH2 0x573 JUMPI PUSH1 0x20 MUL DUP3 ADD SWAP2 SWAP1 PUSH1 0x0 MSTORE PUSH1 0x20 PUSH1 0x0 KECCAK256 SWAP1 JUMPDEST DUP2 SLOAD PUSH1 0x1 PUSH1 0x1 PUSH1 0xA0 SHL SUB AND DUP2 MSTORE PUSH1 0x1 SWAP1 SWAP2 ADD SWAP1 PUSH1 0x20 ADD DUP1 DUP4 GT PUSH2 0x555 JUMPI JUMPDEST POP POP POP POP POP SWAP1 POP PUSH1 0x0 JUMPDEST DUP2 MLOAD DUP2 LT ISZERO PUSH2 0x660 JUMPI CALLER PUSH1 0x1 PUSH1 0x1 PUSH1 0xA0 SHL SUB AND DUP3 DUP3 DUP2 MLOAD DUP2 LT PUSH2 0x5A2 JUMPI PUSH2 0x5A2 PUSH2 0xDF0 JUMP JUMPDEST PUSH1 0x20 MUL PUSH1 0x20 ADD ADD MLOAD PUSH1 0x1 PUSH1 0x1 PUSH1 0xA0 SHL SUB AND SUB PUSH2 0x658 JUMPI DUP2 PUSH1 0x1 DUP4 MLOAD PUSH2 0x5C7 SWAP2 SWAP1 PUSH2 0xE1C JUMP JUMPDEST DUP2 MLOAD DUP2 LT PUSH2 0x5D7 JUMPI PUSH2 0x5D7 PUSH2 0xDF0 JUMP JUMPDEST PUSH1 0x20 MUL PUSH1 0x20 ADD ADD MLOAD PUSH1 0x4 DUP3 DUP2 SLOAD DUP2 LT PUSH2 0x5F2 JUMPI PUSH2 0x5F2 PUSH2 0xDF0 JUMP JUMPDEST SWAP1 PUSH1 0x0 MSTORE PUSH1 0x20 PUSH1 0x0 KECCAK256 ADD PUSH1 0x0 PUSH2 0x100 EXP DUP2 SLOAD DUP2 PUSH1 0x1 PUSH1 0x1 PUSH1 0xA0 SHL SUB MUL NOT AND SWAP1 DUP4 PUSH1 0x1 PUSH1 0x1 PUSH1 0xA0 SHL SUB AND MUL OR SWAP1 SSTORE POP PUSH1 0x4 DUP1 SLOAD DUP1 PUSH2 0x631 JUMPI PUSH2 0x631 PUSH2 0xE2F JUMP JUMPDEST PUSH1 0x0 DUP3 DUP2 MSTORE PUSH1 0x20 SWAP1 KECCAK256 DUP2 ADD PUSH1 0x0 NOT SWAP1 DUP2 ADD DUP1 SLOAD PUSH1 0x1 PUSH1 0x1 PUSH1 0xA0 SHL SUB NOT AND SWAP1 SSTORE ADD SWAP1 SSTORE PUSH2 0x660 JUMP JUMPDEST PUSH1 0x1 ADD PUSH2 0x57D JUMP JUMPDEST POP POP JUMPDEST CALLER PUSH1 0x0 SWAP1 DUP2 MSTORE PUSH1 0x5 PUSH1 0x20 MSTORE PUSH1 0x40 DUP2 KECCAK256 PUSH1 0x1 ADD DUP1 SLOAD DUP5 SWAP3 SWAP1 PUSH2 0x685 SWAP1 DUP5 SWAP1 PUSH2 0xE1C JUMP JUMPDEST SWAP3 POP POP DUP2 SWAP1 SSTORE POP DUP2 PUSH1 0x2 PUSH1 0x0 DUP3 DUP3 SLOAD PUSH2 0x69E SWAP2 SWAP1 PUSH2 0xE1C JUMP JUMPDEST SWAP1 SWAP2 SSTORE POP POP PUSH1 0x40 MLOAD PUSH4 0x23B872DD PUSH1 0xE0 SHL DUP2 MSTORE ADDRESS PUSH1 0x4 DUP3 ADD MSTORE CALLER PUSH1 0x24 DUP3 ADD MSTORE PUSH1 0x44 DUP2 ADD DUP4 SWAP1 MSTORE PUSH32 0x0 PUSH1 0x1 PUSH1 0x1 PUSH1 0xA0 SHL SUB AND SWAP1 PUSH4 0x23B872DD SWAP1 PUSH1 0x64 ADD PUSH1 0x20 PUSH1 0x40 MLOAD DUP1 DUP4 SUB DUP2 PUSH1 0x0 DUP8 GAS CALL ISZERO DUP1 ISZERO PUSH2 0x716 JUMPI RETURNDATASIZE PUSH1 0x0 DUP1 RETURNDATACOPY RETURNDATASIZE PUSH1 0x0 REVERT JUMPDEST POP POP POP POP PUSH1 0x40 MLOAD RETURNDATASIZE PUSH1 0x1F NOT PUSH1 0x1F DUP3 ADD AND DUP3 ADD DUP1 PUSH1 0x40 MSTORE POP DUP2 ADD SWAP1 PUSH2 0x73A SWAP2 SWAP1 PUSH2 0xE45 JUMP JUMPDEST POP PUSH1 0x40 MLOAD DUP3 DUP2 MSTORE CALLER SWAP1 PUSH32 0x6352C5382C4A4578E712449CA65E83CDB392D045DFCF1CAD9615189DB2DA244B SWAP1 PUSH1 0x20 ADD PUSH1 0x40 MLOAD DUP1 SWAP2 SUB SWAP1 LOG2 POP POP JUMP JUMPDEST PUSH1 0x0 PUSH2 0x77F CALLER PUSH2 0xB79 JUMP JUMPDEST CALLER PUSH1 0x0 SWAP1 DUP2 MSTORE PUSH1 0x5 PUSH1 0x20 MSTORE PUSH1 0x40 SWAP1 KECCAK256 PUSH1 0x2 ADD SLOAD PUSH2 0x79C SWAP2 SWAP1 PUSH2 0xE67 JUMP JUMPDEST SWAP1 POP PUSH1 0x0 DUP2 GT PUSH2 0x7DC JUMPI PUSH1 0x40 MLOAD PUSH3 0x461BCD PUSH1 0xE5 SHL DUP2 MSTORE PUSH1 0x20 PUSH1 0x4 DUP3 ADD MSTORE PUSH1 0xB PUSH1 0x24 DUP3 ADD MSTORE PUSH11 0x4E6F207265776172647321 PUSH1 0xA8 SHL PUSH1 0x44 DUP3 ADD MSTORE PUSH1 0x64 ADD PUSH2 0x428 JUMP JUMPDEST CALLER PUSH1 0x0 DUP2 DUP2 MSTORE PUSH1 0x5 PUSH1 0x20 MSTORE PUSH1 0x40 DUP2 KECCAK256 PUSH1 0x2 ADD SSTORE PUSH2 0x7F9 SWAP1 DUP3 PUSH2 0xC23 JUMP JUMPDEST PUSH1 0x40 MLOAD DUP2 DUP2 MSTORE CALLER SWAP1 PUSH32 0xFC30CDDEA38E2BF4D6EA7D3F9ED3B6AD7F176419F4963BD81318067A4AEE73FE SWAP1 PUSH1 0x20 ADD JUMPDEST PUSH1 0x40 MLOAD DUP1 SWAP2 SUB SWAP1 LOG2 POP JUMP JUMPDEST PUSH1 0x0 SLOAD PUSH1 0x1 PUSH1 0x1 PUSH1 0xA0 SHL SUB AND CALLER EQ PUSH2 0x37E JUMPI PUSH1 0x40 MLOAD PUSH4 0x118CDAA7 PUSH1 0xE0 SHL DUP2 MSTORE CALLER PUSH1 0x4 DUP3 ADD MSTORE PUSH1 0x24 ADD PUSH2 0x428 JUMP JUMPDEST PUSH1 0x0 DUP1 SLOAD PUSH1 0x1 PUSH1 0x1 PUSH1 0xA0 SHL SUB DUP4 DUP2 AND PUSH1 0x1 PUSH1 0x1 PUSH1 0xA0 SHL SUB NOT DUP4 AND DUP2 OR DUP5 SSTORE PUSH1 0x40 MLOAD SWAP2 SWAP1 SWAP3 AND SWAP3 DUP4 SWAP2 PUSH32 0x8BE0079C531659141344CD1FD0A4F28419497F9722A3DAAFE3B4186F6B6457E0 SWAP2 SWAP1 LOG3 POP POP JUMP JUMPDEST PUSH1 0x0 DUP2 GT PUSH2 0x8F2 JUMPI PUSH1 0x40 MLOAD PUSH3 0x461BCD PUSH1 0xE5 SHL DUP2 MSTORE PUSH1 0x20 PUSH1 0x4 DUP3 ADD MSTORE PUSH1 0x10 PUSH1 0x24 DUP3 ADD MSTORE PUSH16 0x5374616B696E67203020746F6B656E73 PUSH1 0x80 SHL PUSH1 0x44 DUP3 ADD MSTORE PUSH1 0x64 ADD PUSH2 0x428 JUMP JUMPDEST CALLER PUSH1 0x0 SWAP1 DUP2 MSTORE PUSH1 0x5 PUSH1 0x20 MSTORE PUSH1 0x40 SWAP1 KECCAK256 PUSH1 0x1 ADD SLOAD ISZERO PUSH2 0x918 JUMPI PUSH2 0x913 CALLER PUSH2 0xB03 JUMP JUMPDEST PUSH2 0x983 JUMP JUMPDEST PUSH1 0x4 DUP1 SLOAD PUSH1 0x1 DUP2 ADD SWAP1 SWAP2 SSTORE PUSH32 0x8A35ACFBC15FF81A39AE7D344FD709F28E8600B4AA8C65C6B64BFE7FE36BD19B ADD DUP1 SLOAD PUSH1 0x1 PUSH1 0x1 PUSH1 0xA0 SHL SUB NOT AND CALLER SWAP1 DUP2 OR SWAP1 SWAP2 SSTORE PUSH1 0x0 SWAP1 DUP2 MSTORE PUSH1 0x5 PUSH1 0x20 MSTORE PUSH1 0x40 SWAP1 KECCAK256 DUP1 SLOAD PUSH1 0x1 PUSH1 0x1 PUSH1 0x80 SHL SUB NOT AND PUSH10 0xFFFFFFFFFFFFFFFFFFFF TIMESTAMP AND OR SWAP1 SSTORE JUMPDEST PUSH1 0x40 MLOAD PUSH4 0x23B872DD PUSH1 0xE0 SHL DUP2 MSTORE CALLER PUSH1 0x4 DUP3 ADD MSTORE ADDRESS PUSH1 0x24 DUP3 ADD MSTORE PUSH1 0x44 DUP2 ADD DUP3 SWAP1 MSTORE PUSH32 0x0 PUSH1 0x1 PUSH1 0x1 PUSH1 0xA0 SHL SUB AND SWAP1 PUSH4 0x23B872DD SWAP1 PUSH1 0x64 ADD PUSH1 0x20 PUSH1 0x40 MLOAD DUP1 DUP4 SUB DUP2 PUSH1 0x0 DUP8 GAS CALL ISZERO DUP1 ISZERO PUSH2 0x9F6 JUMPI RETURNDATASIZE PUSH1 0x0 DUP1 RETURNDATACOPY RETURNDATASIZE PUSH1 0x0 REVERT JUMPDEST POP POP POP POP PUSH1 0x40 MLOAD RETURNDATASIZE PUSH1 0x1F NOT PUSH1 0x1F DUP3 ADD AND DUP3 ADD DUP1 PUSH1 0x40 MSTORE POP DUP2 ADD SWAP1 PUSH2 0xA1A SWAP2 SWAP1 PUSH2 0xE45 JUMP JUMPDEST POP CALLER PUSH1 0x0 SWAP1 DUP2 MSTORE PUSH1 0x5 PUSH1 0x20 MSTORE PUSH1 0x40 DUP2 KECCAK256 PUSH1 0x1 ADD DUP1 SLOAD DUP4 SWAP3 SWAP1 PUSH2 0xA3D SWAP1 DUP5 SWAP1 PUSH2 0xE67 JUMP JUMPDEST SWAP3 POP POP DUP2 SWAP1 SSTORE POP DUP1 PUSH1 0x2 PUSH1 0x0 DUP3 DUP3 SLOAD PUSH2 0xA56 SWAP2 SWAP1 PUSH2 0xE67 JUMP JUMPDEST SWAP1 SWAP2 SSTORE POP POP PUSH1 0x40 MLOAD DUP2 DUP2 MSTORE CALLER SWAP1 PUSH32 0xB539CA1E5C8D398DDF1C41C30166F33404941683BE4683319B57669A93DAD4EF SWAP1 PUSH1 0x20 ADD PUSH2 0x827 JUMP JUMPDEST PUSH1 0x1 PUSH1 0x1 PUSH1 0xA0 SHL SUB DUP2 AND PUSH1 0x0 SWAP1 DUP2 MSTORE PUSH1 0x5 PUSH1 0x20 MSTORE PUSH1 0x40 DUP2 KECCAK256 PUSH1 0x1 ADD SLOAD DUP2 SUB PUSH2 0xACE JUMPI POP PUSH1 0x1 PUSH1 0x1 PUSH1 0xA0 SHL SUB AND PUSH1 0x0 SWAP1 DUP2 MSTORE PUSH1 0x5 PUSH1 0x20 MSTORE PUSH1 0x40 SWAP1 KECCAK256 PUSH1 0x2 ADD SLOAD SWAP1 JUMP JUMPDEST PUSH2 0xAD7 DUP3 PUSH2 0xB79 JUMP JUMPDEST PUSH1 0x1 PUSH1 0x1 PUSH1 0xA0 SHL SUB DUP4 AND PUSH1 0x0 SWAP1 DUP2 MSTORE PUSH1 0x5 PUSH1 0x20 MSTORE PUSH1 0x40 SWAP1 KECCAK256 PUSH1 0x2 ADD SLOAD PUSH2 0xAFD SWAP2 SWAP1 PUSH2 0xE67 JUMP JUMPDEST SWAP3 SWAP2 POP POP JUMP JUMPDEST PUSH1 0x0 PUSH2 0xB0E DUP3 PUSH2 0xB79 JUMP JUMPDEST PUSH1 0x1 PUSH1 0x1 PUSH1 0xA0 SHL SUB DUP4 AND PUSH1 0x0 SWAP1 DUP2 MSTORE PUSH1 0x5 PUSH1 0x20 MSTORE PUSH1 0x40 DUP2 KECCAK256 PUSH1 0x2 ADD DUP1 SLOAD SWAP3 SWAP4 POP DUP4 SWAP3 SWAP1 SWAP2 SWAP1 PUSH2 0xB3E SWAP1 DUP5 SWAP1 PUSH2 0xE67 JUMP JUMPDEST SWAP1 SWAP2 SSTORE POP POP POP PUSH1 0x1 PUSH1 0x1 PUSH1 0xA0 SHL SUB AND PUSH1 0x0 SWAP1 DUP2 MSTORE PUSH1 0x5 PUSH1 0x20 MSTORE PUSH1 0x40 SWAP1 KECCAK256 DUP1 SLOAD PUSH1 0x1 PUSH1 0x1 PUSH1 0x80 SHL SUB NOT AND PUSH10 0xFFFFFFFFFFFFFFFFFFFF TIMESTAMP AND OR SWAP1 SSTORE JUMP JUMPDEST PUSH1 0x1 PUSH1 0x1 PUSH1 0xA0 SHL SUB DUP2 AND PUSH1 0x0 SWAP1 DUP2 MSTORE PUSH1 0x5 PUSH1 0x20 SWAP1 DUP2 MSTORE PUSH1 0x40 DUP1 DUP4 KECCAK256 DUP2 MLOAD PUSH1 0x60 DUP2 ADD DUP4 MSTORE DUP2 SLOAD PUSH1 0x1 PUSH1 0x1 PUSH1 0x80 SHL SUB AND DUP1 DUP3 MSTORE PUSH1 0x1 DUP4 ADD SLOAD SWAP5 DUP3 ADD SWAP5 SWAP1 SWAP5 MSTORE PUSH1 0x2 SWAP1 SWAP2 ADD SLOAD SWAP2 DUP2 ADD SWAP2 SWAP1 SWAP2 MSTORE SWAP1 TIMESTAMP DUP4 PUSH2 0xBD0 DUP4 DUP4 PUSH2 0xE1C JUMP JUMPDEST SWAP1 POP PUSH2 0xBED DUP5 PUSH1 0x20 ADD MLOAD DUP3 PUSH2 0xBE5 SWAP2 SWAP1 PUSH2 0xE7A JUMP JUMPDEST PUSH2 0x1770 PUSH2 0xD2A JUMP JUMPDEST SWAP6 POP PUSH2 0xC03 SWAP1 POP DUP6 PUSH8 0xDE0B6B3A7640000 PUSH2 0xD5E JUMP JUMPDEST SWAP6 POP PUSH2 0xC19 SWAP1 POP PUSH8 0xDE0B6B3A7640000 DUP7 PUSH2 0xEA7 JUMP JUMPDEST SWAP7 SWAP6 POP POP POP POP POP POP JUMP JUMPDEST PUSH1 0x3 SLOAD DUP2 GT ISZERO PUSH2 0xC75 JUMPI PUSH1 0x40 MLOAD PUSH3 0x461BCD PUSH1 0xE5 SHL DUP2 MSTORE PUSH1 0x20 PUSH1 0x4 DUP3 ADD MSTORE PUSH1 0x18 PUSH1 0x24 DUP3 ADD MSTORE PUSH32 0x4E6F7420656E6F7567682072657761726420746F6B656E730000000000000000 PUSH1 0x44 DUP3 ADD MSTORE PUSH1 0x64 ADD PUSH2 0x428 JUMP JUMPDEST DUP1 PUSH1 0x3 PUSH1 0x0 DUP3 DUP3 SLOAD PUSH2 0xC87 SWAP2 SWAP1 PUSH2 0xE1C JUMP JUMPDEST SWAP1 SWAP2 SSTORE POP POP PUSH1 0x40 MLOAD PUSH4 0x23B872DD PUSH1 0xE0 SHL DUP2 MSTORE ADDRESS PUSH1 0x4 DUP3 ADD MSTORE PUSH1 0x1 PUSH1 0x1 PUSH1 0xA0 SHL SUB DUP4 DUP2 AND PUSH1 0x24 DUP4 ADD MSTORE PUSH1 0x44 DUP3 ADD DUP4 SWAP1 MSTORE PUSH32 0x0 AND SWAP1 PUSH4 0x23B872DD SWAP1 PUSH1 0x64 ADD PUSH1 0x20 PUSH1 0x40 MLOAD DUP1 DUP4 SUB DUP2 PUSH1 0x0 DUP8 GAS CALL ISZERO DUP1 ISZERO PUSH2 0xD01 JUMPI RETURNDATASIZE PUSH1 0x0 DUP1 RETURNDATACOPY RETURNDATASIZE PUSH1 0x0 REVERT JUMPDEST POP POP POP POP PUSH1 0x40 MLOAD RETURNDATASIZE PUSH1 0x1F NOT PUSH1 0x1F DUP3 ADD AND DUP3 ADD DUP1 PUSH1 0x40 MSTORE POP DUP2 ADD SWAP1 PUSH2 0xD25 SWAP2 SWAP1 PUSH2 0xE45 JUMP JUMPDEST POP POP POP JUMP JUMPDEST PUSH1 0x0 DUP1 DUP3 PUSH1 0x0 SUB PUSH2 0xD40 JUMPI POP PUSH1 0x0 SWAP1 POP DUP1 PUSH2 0xD57 JUMP JUMPDEST PUSH1 0x1 DUP4 DUP6 DUP2 PUSH2 0xD51 JUMPI PUSH2 0xD51 PUSH2 0xE91 JUMP JUMPDEST DIV SWAP2 POP SWAP2 POP JUMPDEST SWAP3 POP SWAP3 SWAP1 POP JUMP JUMPDEST PUSH1 0x0 DUP1 DUP4 PUSH1 0x0 SUB PUSH2 0xD75 JUMPI POP PUSH1 0x1 SWAP1 POP PUSH1 0x0 PUSH2 0xD57 JUMP JUMPDEST DUP4 DUP4 MUL DUP4 DUP6 DUP3 DUP2 PUSH2 0xD88 JUMPI PUSH2 0xD88 PUSH2 0xE91 JUMP JUMPDEST DIV EQ PUSH2 0xD9B JUMPI PUSH1 0x0 DUP1 SWAP3 POP SWAP3 POP POP PUSH2 0xD57 JUMP JUMPDEST PUSH1 0x1 SWAP6 SWAP1 SWAP5 POP SWAP3 POP POP POP JUMP JUMPDEST PUSH1 0x0 PUSH1 0x20 DUP3 DUP5 SUB SLT ISZERO PUSH2 0xDB9 JUMPI PUSH1 0x0 DUP1 REVERT JUMPDEST POP CALLDATALOAD SWAP2 SWAP1 POP JUMP JUMPDEST PUSH1 0x0 PUSH1 0x20 DUP3 DUP5 SUB SLT ISZERO PUSH2 0xDD2 JUMPI PUSH1 0x0 DUP1 REVERT JUMPDEST DUP2 CALLDATALOAD PUSH1 0x1 PUSH1 0x1 PUSH1 0xA0 SHL SUB DUP2 AND DUP2 EQ PUSH2 0xDE9 JUMPI PUSH1 0x0 DUP1 REVERT JUMPDEST SWAP4 SWAP3 POP POP POP JUMP JUMPDEST PUSH4 0x4E487B71 PUSH1 0xE0 SHL PUSH1 0x0 MSTORE PUSH1 0x32 PUSH1 0x4 MSTORE PUSH1 0x24 PUSH1 0x0 REVERT JUMPDEST PUSH4 0x4E487B71 PUSH1 0xE0 SHL PUSH1 0x0 MSTORE PUSH1 0x11 PUSH1 0x4 MSTORE PUSH1 0x24 PUSH1 0x0 REVERT JUMPDEST DUP2 DUP2 SUB DUP2 DUP2 GT ISZERO PUSH2 0xAFD JUMPI PUSH2 0xAFD PUSH2 0xE06 JUMP JUMPDEST PUSH4 0x4E487B71 PUSH1 0xE0 SHL PUSH1 0x0 MSTORE PUSH1 0x31 PUSH1 0x4 MSTORE PUSH1 0x24 PUSH1 0x0 REVERT JUMPDEST PUSH1 0x0 PUSH1 0x20 DUP3 DUP5 SUB SLT ISZERO PUSH2 0xE57 JUMPI PUSH1 0x0 DUP1 REVERT JUMPDEST DUP2 MLOAD DUP1 ISZERO ISZERO DUP2 EQ PUSH2 0xDE9 JUMPI PUSH1 0x0 DUP1 REVERT JUMPDEST DUP1 DUP3 ADD DUP1 DUP3 GT ISZERO PUSH2 0xAFD JUMPI PUSH2 0xAFD PUSH2 0xE06 JUMP JUMPDEST DUP1 DUP3 MUL DUP2 ISZERO DUP3 DUP3 DIV DUP5 EQ OR PUSH2 0xAFD JUMPI PUSH2 0xAFD PUSH2 0xE06 JUMP JUMPDEST PUSH4 0x4E487B71 PUSH1 0xE0 SHL PUSH1 0x0 MSTORE PUSH1 0x12 PUSH1 0x4 MSTORE PUSH1 0x24 PUSH1 0x0 REVERT JUMPDEST PUSH1 0x0 DUP3 PUSH2 0xEC4 JUMPI PUSH4 0x4E487B71 PUSH1 0xE0 SHL PUSH1 0x0 MSTORE PUSH1 0x12 PUSH1 0x4 MSTORE PUSH1 0x24 PUSH1 0x0 REVERT JUMPDEST POP DIV SWAP1 JUMP INVALID LOG2 PUSH5 0x6970667358 0x22 SLT KECCAK256 LT CALLDATACOPY CREATE2 RETURNDATASIZE 0xB2 POP SIGNEXTEND CALLER 0xDF KECCAK256 DUP12 0xB2 BLOCKHASH EXTCODESIZE EXTCODEHASH PUSH32 0x7D806731846FA029590257A3A8FB147E64736F6C634300081800330000000000 "},"methodIdentifiers":{"claimRewards()":"372500ab","getRewardTokenBalance()":"93ce5343","getStakeInfo(address)":"c3453153","owner()":"8da5cb5b","paused()":"5c975abb","renounceOwnership()":"715018a6","rewardToken()":"f7c618c1","rewardTokenBalance()":"75824f23","stake(uint256)":"a694fc3a","stakers(address)":"9168ae72","stakersArray(uint256)":"5357e916","stakingToken()":"72f702f3","stakingTokenBalance()":"8caaa271","transferOwnership(address)":"f2fde38b","withdraw(uint256)":"2e1a7d4d"}}}}}