{
  "_format": "hh-sol-artifact-1",
  "contractName": "ComStaking",
  "sourceName": "contracts/ComStaking.sol",
  "abi": [
    {
      "inputs": [
        {
          "internalType": "address",
          "name": "_stakingToken",
          "type": "address"
        },
        {
          "internalType": "address",
          "name": "_rewardToken",
          "type": "address"
        }
      ],
      "stateMutability": "nonpayable",
      "type": "constructor"
    },
    {
      "inputs": [],
      "name": "EnforcedPause",
      "type": "error"
    },
    {
      "inputs": [],
      "name": "ExpectedPause",
      "type": "error"
    },
    {
      "inputs": [
        {
          "internalType": "address",
          "name": "owner",
          "type": "address"
        }
      ],
      "name": "OwnableInvalidOwner",
      "type": "error"
    },
    {
      "inputs": [
        {
          "internalType": "address",
          "name": "account",
          "type": "address"
        }
      ],
      "name": "OwnableUnauthorizedAccount",
      "type": "error"
    },
    {
      "inputs": [],
      "name": "ReentrancyGuardReentrantCall",
      "type": "error"
    },
    {
      "anonymous": false,
      "inputs": [
        {
          "indexed": true,
          "internalType": "address",
          "name": "previousOwner",
          "type": "address"
        },
        {
          "indexed": true,
          "internalType": "address",
          "name": "newOwner",
          "type": "address"
        }
      ],
      "name": "OwnershipTransferred",
      "type": "event"
    },
    {
      "anonymous": false,
      "inputs": [
        {
          "indexed": false,
          "internalType": "address",
          "name": "account",
          "type": "address"
        }
      ],
      "name": "Paused",
      "type": "event"
    },
    {
      "anonymous": false,
      "inputs": [
        {
          "indexed": true,
          "internalType": "address",
          "name": "staker",
          "type": "address"
        },
        {
          "indexed": false,
          "internalType": "uint256",
          "name": "rewardAmount",
          "type": "uint256"
        }
      ],
      "name": "RewardsClaimed",
      "type": "event"
    },
    {
      "anonymous": false,
      "inputs": [
        {
          "indexed": true,
          "internalType": "address",
          "name": "staker",
          "type": "address"
        },
        {
          "indexed": false,
          "internalType": "uint256",
          "name": "amount",
          "type": "uint256"
        }
      ],
      "name": "TokensStaked",
      "type": "event"
    },
    {
      "anonymous": false,
      "inputs": [
        {
          "indexed": true,
          "internalType": "address",
          "name": "staker",
          "type": "address"
        },
        {
          "indexed": false,
          "internalType": "uint256",
          "name": "amount",
          "type": "uint256"
        }
      ],
      "name": "TokensWithdrawn",
      "type": "event"
    },
    {
      "anonymous": false,
      "inputs": [
        {
          "indexed": false,
          "internalType": "address",
          "name": "account",
          "type": "address"
        }
      ],
      "name": "Unpaused",
      "type": "event"
    },
    {
      "anonymous": false,
      "inputs": [
        {
          "indexed": false,
          "internalType": "uint256",
          "name": "oldAmount",
          "type": "uint256"
        },
        {
          "indexed": false,
          "internalType": "uint256",
          "name": "newAmount",
          "type": "uint256"
        }
      ],
      "name": "UpdatedMinStakeAmount",
      "type": "event"
    },
    {
      "anonymous": false,
      "inputs": [
        {
          "indexed": false,
          "internalType": "uint256",
          "name": "oldNumerator",
          "type": "uint256"
        },
        {
          "indexed": false,
          "internalType": "uint256",
          "name": "newNumerator",
          "type": "uint256"
        },
        {
          "indexed": false,
          "internalType": "uint256",
          "name": "oldDenominator",
          "type": "uint256"
        },
        {
          "indexed": false,
          "internalType": "uint256",
          "name": "newDenominator",
          "type": "uint256"
        }
      ],
      "name": "UpdatedRewardRatio",
      "type": "event"
    },
    {
      "anonymous": false,
      "inputs": [
        {
          "indexed": false,
          "internalType": "uint256",
          "name": "oldTimeUnit",
          "type": "uint256"
        },
        {
          "indexed": false,
          "internalType": "uint256",
          "name": "newTimeUnit",
          "type": "uint256"
        }
      ],
      "name": "UpdatedTimeUint",
      "type": "event"
    },
    {
      "inputs": [
        {
          "internalType": "uint256",
          "name": "_amount",
          "type": "uint256"
        }
      ],
      "name": "_depositRewardTokens",
      "outputs": [],
      "stateMutability": "nonpayable",
      "type": "function"
    },
    {
      "inputs": [
        {
          "internalType": "uint256",
          "name": "_amount",
          "type": "uint256"
        }
      ],
      "name": "_withdrawRewardTokens",
      "outputs": [],
      "stateMutability": "nonpayable",
      "type": "function"
    },
    {
      "inputs": [],
      "name": "claimRewards",
      "outputs": [],
      "stateMutability": "nonpayable",
      "type": "function"
    },
    {
      "inputs": [],
      "name": "getRewardTokenBalance",
      "outputs": [
        {
          "internalType": "uint256",
          "name": "",
          "type": "uint256"
        }
      ],
      "stateMutability": "view",
      "type": "function"
    },
    {
      "inputs": [
        {
          "internalType": "address",
          "name": "_staker",
          "type": "address"
        }
      ],
      "name": "getStakeInfo",
      "outputs": [
        {
          "internalType": "uint256",
          "name": "_tokensStaked",
          "type": "uint256"
        },
        {
          "internalType": "uint256",
          "name": "_rewards",
          "type": "uint256"
        }
      ],
      "stateMutability": "view",
      "type": "function"
    },
    {
      "inputs": [],
      "name": "owner",
      "outputs": [
        {
          "internalType": "address",
          "name": "",
          "type": "address"
        }
      ],
      "stateMutability": "view",
      "type": "function"
    },
    {
      "inputs": [],
      "name": "paused",
      "outputs": [
        {
          "internalType": "bool",
          "name": "",
          "type": "bool"
        }
      ],
      "stateMutability": "view",
      "type": "function"
    },
    {
      "inputs": [],
      "name": "renounceOwnership",
      "outputs": [],
      "stateMutability": "nonpayable",
      "type": "function"
    },
    {
      "inputs": [],
      "name": "rewardToken",
      "outputs": [
        {
          "internalType": "address",
          "name": "",
          "type": "address"
        }
      ],
      "stateMutability": "view",
      "type": "function"
    },
    {
      "inputs": [],
      "name": "rewardTokenBalance",
      "outputs": [
        {
          "internalType": "uint256",
          "name": "",
          "type": "uint256"
        }
      ],
      "stateMutability": "view",
      "type": "function"
    },
    {
      "inputs": [
        {
          "internalType": "uint256",
          "name": "_amount",
          "type": "uint256"
        }
      ],
      "name": "stake",
      "outputs": [],
      "stateMutability": "nonpayable",
      "type": "function"
    },
    {
      "inputs": [
        {
          "internalType": "address",
          "name": "",
          "type": "address"
        }
      ],
      "name": "stakers",
      "outputs": [
        {
          "internalType": "uint128",
          "name": "timeOfLastUpdate",
          "type": "uint128"
        },
        {
          "internalType": "uint256",
          "name": "amountStaked",
          "type": "uint256"
        },
        {
          "internalType": "uint256",
          "name": "unclaimedRewards",
          "type": "uint256"
        }
      ],
      "stateMutability": "view",
      "type": "function"
    },
    {
      "inputs": [
        {
          "internalType": "uint256",
          "name": "",
          "type": "uint256"
        }
      ],
      "name": "stakersArray",
      "outputs": [
        {
          "internalType": "address",
          "name": "",
          "type": "address"
        }
      ],
      "stateMutability": "view",
      "type": "function"
    },
    {
      "inputs": [],
      "name": "stakingToken",
      "outputs": [
        {
          "internalType": "address",
          "name": "",
          "type": "address"
        }
      ],
      "stateMutability": "view",
      "type": "function"
    },
    {
      "inputs": [],
      "name": "stakingTokenBalance",
      "outputs": [
        {
          "internalType": "uint256",
          "name": "",
          "type": "uint256"
        }
      ],
      "stateMutability": "view",
      "type": "function"
    },
    {
      "inputs": [
        {
          "internalType": "address",
          "name": "newOwner",
          "type": "address"
        }
      ],
      "name": "transferOwnership",
      "outputs": [],
      "stateMutability": "nonpayable",
      "type": "function"
    },
    {
      "inputs": [
        {
          "internalType": "uint256",
          "name": "_amount",
          "type": "uint256"
        }
      ],
      "name": "withdraw",
      "outputs": [],
      "stateMutability": "nonpayable",
      "type": "function"
    }
  ],
  "bytecode": "0x60c06040523480156200001157600080fd5b506040516200159a3803806200159a833981016040819052620000349162000175565b33806200005c57604051631e4fbdf760e01b8152600060048201526024015b60405180910390fd5b620000678162000108565b506000805460ff60a01b19169055600180556001600160a01b0380831690821603620000f05760405162461bcd60e51b815260206004820152603160248201527f52657761726420546f6b656e20616e64205374616b696e6720546f6b656e206360448201527030b713ba103132903a34329039b0b6b29760791b606482015260840162000053565b6001600160a01b0390811660a05216608052620001ad565b600080546001600160a01b038381166001600160a01b0319831681178455604051919092169283917f8be0079c531659141344cd1fd0a4f28419497f9722a3daafe3b4186f6b6457e09190a35050565b80516001600160a01b03811681146200017057600080fd5b919050565b600080604083850312156200018957600080fd5b620001948362000158565b9150620001a46020840162000158565b90509250929050565b60805160a05161138162000219600039600081816102a601528181610347015281816103d4015281816105e10152818161066e01528181611082015261110701526000818161019a0152818161097301528181610a0001528181610ce10152610d6e01526113816000f3fe608060405234801561001057600080fd5b506004361061010b5760003560e01c80638caaa271116100a2578063a694fc3a11610071578063a694fc3a14610253578063c345315314610266578063f2fde38b1461028e578063f7c618c1146102a1578063fb57ed16146102c857600080fd5b80638caaa271146101d35780638da5cb5b146101dc5780639168ae72146101ed57806393ce53431461024b57600080fd5b80635c975abb116100de5780635c975abb14610170578063715018a61461018d57806372f702f31461019557806375824f23146101bc57600080fd5b80632774f71f146101105780632e1a7d4d14610125578063372500ab146101385780635357e91614610140575b600080fd5b61012361011e366004611205565b6102db565b005b610123610133366004611205565b61046b565b610123610488565b61015361014e366004611205565b6104a3565b6040516001600160a01b0390911681526020015b60405180910390f35b600054600160a01b900460ff166040519015158152602001610167565b6101236104cd565b6101537f000000000000000000000000000000000000000000000000000000000000000081565b6101c560035481565b604051908152602001610167565b6101c560025481565b6000546001600160a01b0316610153565b6102266101fb36600461121e565b6005602052600090815260409020805460018201546002909201546001600160801b03909116919083565b604080516001600160801b039094168452602084019290925290820152606001610167565b6003546101c5565b610123610261366004611205565b6104df565b61027961027436600461121e565b6104f0565b60408051928352602083019190915201610167565b61012361029c36600461121e565b61051d565b6101537f000000000000000000000000000000000000000000000000000000000000000081565b6101236102d6366004611205565b610558565b6000546001600160a01b0316331461032b5760405162461bcd60e51b815260206004820152600e60248201526d139bdd08185d5d1a1bdc9a5e995960921b60448201526064015b60405180910390fd5b60405163095ea7b360e01b8152306004820152602481018290527f00000000000000000000000000000000000000000000000000000000000000006001600160a01b03169063095ea7b3906044016020604051808303816000875af1158015610398573d6000803e3d6000fd5b505050506040513d601f19601f820116820180604052508101906103bc919061124e565b506040516323b872dd60e01b81526001600160a01b037f000000000000000000000000000000000000000000000000000000000000000016906323b872dd9061040d90339030908690600401611270565b6020604051808303816000875af115801561042c573d6000803e3d6000fd5b505050506040513d601f19601f82011682018060405250810190610450919061124e565b50806003600082825461046391906112aa565b909155505050565b6104736106ee565b61047c81610718565b61048560018055565b50565b6104906106ee565b610498610ab6565b6104a160018055565b565b600481815481106104b357600080fd5b6000918252602090912001546001600160a01b0316905081565b6104d5610b74565b6104a16000610ba1565b6104e76106ee565b61047c81610bf1565b6001600160a01b0381166000908152600560205260408120600101549061051683610e5d565b9050915091565b610525610b74565b6001600160a01b03811661054f57604051631e4fbdf760e01b815260006004820152602401610322565b61048581610ba1565b6000546001600160a01b031633146105a35760405162461bcd60e51b815260206004820152600e60248201526d139bdd08185d5d1a1bdc9a5e995960921b6044820152606401610322565b60035481116105bf57806003546105ba91906112bd565b6105c2565b60005b60035560405163095ea7b360e01b8152336004820152602481018290527f00000000000000000000000000000000000000000000000000000000000000006001600160a01b03169063095ea7b3906044016020604051808303816000875af1158015610632573d6000803e3d6000fd5b505050506040513d601f19601f82011682018060405250810190610656919061124e565b506040516323b872dd60e01b81526001600160a01b037f000000000000000000000000000000000000000000000000000000000000000016906323b872dd906106a790309033908690600401611270565b6020604051808303816000875af11580156106c6573d6000803e3d6000fd5b505050506040513d601f19601f820116820180604052508101906106ea919061124e565b5050565b60026001540361071157604051633ee5aeb560e01b815260040160405180910390fd5b6002600155565b336000908152600560205260409020600101548161076f5760405162461bcd60e51b81526020600482015260146024820152735769746864726177696e67203020746f6b656e7360601b6044820152606401610322565b818110156107bf5760405162461bcd60e51b815260206004820152601d60248201527f5769746864726177696e67206d6f7265207468616e207374616b65642e0000006044820152606401610322565b6107c833610ed3565b818103610917576000600480548060200260200160405190810160405280929190818152602001828054801561082757602002820191906000526020600020905b81546001600160a01b03168152600190910190602001808311610809575b5050505050905060005b815181101561091457336001600160a01b0316828281518110610856576108566112d0565b60200260200101516001600160a01b03160361090c57816001835161087b91906112bd565b8151811061088b5761088b6112d0565b6020026020010151600482815481106108a6576108a66112d0565b9060005260206000200160006101000a8154816001600160a01b0302191690836001600160a01b0316021790555060048054806108e5576108e56112e6565b600082815260209020810160001990810180546001600160a01b0319169055019055610914565b600101610831565b50505b33600090815260056020526040812060010180548492906109399084906112bd565b92505081905550816002600082825461095291906112bd565b909155505060405163095ea7b360e01b8152336004820152602481018390527f00000000000000000000000000000000000000000000000000000000000000006001600160a01b03169063095ea7b3906044016020604051808303816000875af11580156109c4573d6000803e3d6000fd5b505050506040513d601f19601f820116820180604052508101906109e8919061124e565b506040516323b872dd60e01b81526001600160a01b037f000000000000000000000000000000000000000000000000000000000000000016906323b872dd90610a3990309033908790600401611270565b6020604051808303816000875af1158015610a58573d6000803e3d6000fd5b505050506040513d601f19601f82011682018060405250810190610a7c919061124e565b5060405182815233907f6352c5382c4a4578e712449ca65e83cdb392d045dfcf1cad9615189db2da244b9060200160405180910390a25050565b6000610ac133610f49565b33600090815260056020526040902060020154610ade91906112aa565b905060008111610b1e5760405162461bcd60e51b815260206004820152600b60248201526a4e6f20726577617264732160a81b6044820152606401610322565b33600081815260056020526040812060020155610b3b9082610ff3565b60405181815233907ffc30cddea38e2bf4d6ea7d3f9ed3b6ad7f176419f4963bd81318067a4aee73fe906020015b60405180910390a250565b6000546001600160a01b031633146104a15760405163118cdaa760e01b8152336004820152602401610322565b600080546001600160a01b038381166001600160a01b0319831681178455604051919092169283917f8be0079c531659141344cd1fd0a4f28419497f9722a3daafe3b4186f6b6457e09190a35050565b60008111610c345760405162461bcd60e51b815260206004820152601060248201526f5374616b696e67203020746f6b656e7360801b6044820152606401610322565b3360009081526005602052604090206001015415610c5a57610c5533610ed3565b610cc5565b60048054600181019091557f8a35acfbc15ff81a39ae7d344fd709f28e8600b4aa8c65c6b64bfe7fe36bd19b0180546001600160a01b03191633908117909155600090815260056020526040902080546001600160801b03191669ffffffffffffffffffff42161790555b60405163095ea7b360e01b8152306004820152602481018290527f00000000000000000000000000000000000000000000000000000000000000006001600160a01b03169063095ea7b3906044016020604051808303816000875af1158015610d32573d6000803e3d6000fd5b505050506040513d601f19601f82011682018060405250810190610d56919061124e565b506040516323b872dd60e01b81526001600160a01b037f000000000000000000000000000000000000000000000000000000000000000016906323b872dd90610da790339030908690600401611270565b6020604051808303816000875af1158015610dc6573d6000803e3d6000fd5b505050506040513d601f19601f82011682018060405250810190610dea919061124e565b503360009081526005602052604081206001018054839290610e0d9084906112aa565b925050819055508060026000828254610e2691906112aa565b909155505060405181815233907fb539ca1e5c8d398ddf1c41c30166f33404941683be4683319b57669a93dad4ef90602001610b69565b6001600160a01b0381166000908152600560205260408120600101548103610e9e57506001600160a01b031660009081526005602052604090206002015490565b610ea782610f49565b6001600160a01b038316600090815260056020526040902060020154610ecd91906112aa565b92915050565b6000610ede82610f49565b6001600160a01b038316600090815260056020526040812060020180549293508392909190610f0e9084906112aa565b9091555050506001600160a01b0316600090815260056020526040902080546001600160801b03191669ffffffffffffffffffff4216179055565b6001600160a01b0381166000908152600560209081526040808320815160608101835281546001600160801b031680825260018301549482019490945260029091015491810191909152904283610fa083836112bd565b9050610fbd846020015182610fb591906112fc565b611770611188565b9550610fd3905085670de0b6b3a76400006111bc565b9550610fe99050670de0b6b3a764000086611329565b9695505050505050565b6003548111156110455760405162461bcd60e51b815260206004820152601860248201527f4e6f7420656e6f7567682072657761726420746f6b656e7300000000000000006044820152606401610322565b806003600082825461105791906112bd565b909155505060405163095ea7b360e01b81526001600160a01b038381166004830152602482018390527f0000000000000000000000000000000000000000000000000000000000000000169063095ea7b3906044016020604051808303816000875af11580156110cb573d6000803e3d6000fd5b505050506040513d601f19601f820116820180604052508101906110ef919061124e565b506040516323b872dd60e01b81526001600160a01b037f000000000000000000000000000000000000000000000000000000000000000016906323b872dd9061114090309086908690600401611270565b6020604051808303816000875af115801561115f573d6000803e3d6000fd5b505050506040513d601f19601f82011682018060405250810190611183919061124e565b505050565b6000808260000361119e575060009050806111b5565b60018385816111af576111af611313565b04915091505b9250929050565b600080836000036111d357506001905060006111b5565b838302838582816111e6576111e6611313565b04146111f95760008092509250506111b5565b60019590945092505050565b60006020828403121561121757600080fd5b5035919050565b60006020828403121561123057600080fd5b81356001600160a01b038116811461124757600080fd5b9392505050565b60006020828403121561126057600080fd5b8151801515811461124757600080fd5b6001600160a01b039384168152919092166020820152604081019190915260600190565b634e487b7160e01b600052601160045260246000fd5b80820180821115610ecd57610ecd611294565b81810381811115610ecd57610ecd611294565b634e487b7160e01b600052603260045260246000fd5b634e487b7160e01b600052603160045260246000fd5b8082028115828204841417610ecd57610ecd611294565b634e487b7160e01b600052601260045260246000fd5b60008261134657634e487b7160e01b600052601260045260246000fd5b50049056fea264697066735822122079f29a9af313841c6d0ee5128a13900cd6c3f7fec25821094ba9e3852d69e9f864736f6c63430008180033",
  "linkReferences": {},
  "deployedLinkReferences": {}
}